:1000000000EE00F010EE14F00AEC00F0000EF86EB6
:1000100047EF03F0EE6AE550E150FCE1E250FAE10F
:020020001200CC
:100600000001000A006400E80310274D4944492016
:10061000496E737472756D656E7400546865204F11
:100620006E6C792043686F6963650020202020206C
:1006300020202020202020202020004D4944494314
:1006400068616E6E656C203D2564004D6F64756C4D
:100650006174696F6E3D2564004D696C6C73204D4B
:100660004944493A004E756D6265723A202564002E
:10067000566F6C756D653D25640050697463683D07
:1006800025640050616E3D2564000A00000000EE04
:1006900005F011EE17F00F0EEECFE6FFE82EFCD7B7
:1006A0000101266F000E01010101046F01012651B5
:1006B0000101266F000E01010101056F01012651A4
:1006C0000101266F000E01010101066F0101265193
:1006D0000101266F000E01010101076F0101265182
:1006E0000101266F000E01010101086F0101265171
:1006F0000101266F010E010101010A6F010126515E
:100700000101266F000E010101010B6F010126514D
:10071000000E01010101156F000E0101166F0101AC
:10072000266F000E01010101006F01012651010138
:10073000266F000E01010101016F01012651E1EC5C
:100740000BF00101266F000E01010101286F01016C
:1007500026514DEC0CF0590E01010101286F060ED7
:100760000101296F13EC0BF00101266F400E01010E
:100770000101286F010126514DEC0CF01B0E010107
:100780000101286F060E0101296F13EC0BF002C165
:1007900081FF01010101022BB80E01010101286F47
:1007A0000B0E0101296F72EC0BF0F8EC0BF081B02D
:1007B00001D001D020D001010101046701D001D096
:1007C0001AD00101266F010E01010101046F010120
:1007D0002651010101010A2B040E010101010A65E4
:1007E00001D001D008D00101266F010E01010101E5
:1007F0000A6F0101265181A001D001D00FD0010163
:1008000001010405D8A401D001D008D00101266F50
:10081000000E01010101046F0101265180B801D0D1
:1008200001D04AD001010101056701D001D044D0B7
:100830000101266F010E01010101056F0101265121
:10084000010101010BC12AF1010101012B6B0FC153
:1008500028F110C129F199EC0BF0010101010BC144
:100860002AF1010101012B6B0DC128F10EC129F103
:10087000B1EC0BF0010101010BC12CF101010101EF
:100880002D6B11C12AF112C12BF113C128F114C132
:1008900029F10CEC0CF011C12CF112C12DF113C196
:1008A0002AF114C12BF1010101010BC128F1010151
:1008B0000101296B1EEC0CF080A801D001D01CD0E6
:1008C000010101010505D8A401D001D015D0010115
:1008D000266F000E01010101056F01012651010182
:1008E00001010BC12AF1010101012B6B13C128F198
:1008F00014C129F1C9EC0BF080AA01D001D033D08A
:1009000001010101066701D001D02DD00101266F40
:10091000010E01010101066F0101265101010101D2
:100920000B2B0F0E010101010B6501D001D01BD073
:100930000101266F400E01010101286F01012651BE
:100940004DEC0CF02B0E01010101286F060E010188
:10095000296F13EC0BF00101266F000E010101015C
:100960000B6F0101265180BA01D001D00FD00101D7
:1009700001010605D8A401D001D008D00101266FDD
:10098000000E01010101066F0101265181AA01D06B
:1009900001D07BD001010101076701D001D075D0E2
:1009A0000101266F010E01010101076F01012651AE
:1009B00001010101154B162B010101011651800A9D
:1009C000800F800ED8B4155DD8A001D001D007D01B
:1009D000000E01010101156F000E0101166FF8EC08
:1009E0000BF00101266F000E01010101286F0101CA
:1009F00026514DEC0CF00B0E01010101286F060E83
:100A00000101296F13EC0BF015C12CF116C12DF16A
:100A1000650E010101012A6F060E01012B6F010114
:100A2000170E01010101286F0101010E0101296F5B
:100A30007AEC08F00101266F400E01010101286FD8
:100A4000010126514DEC0CF00101170E01010101CD
:100A5000286F0101010E0101296F13EC0BF015C184
:100A60002AF116C12BF1010101010BC128F101018D
:100A70000101296B3FEC0CF0DC0E01010101286F34
:100A8000050E0101296F72EC0BF081BA01D001D083
:100A90000FD0010101010705D8A401D001D008D071
:100AA0000101266F000E01010101076F01012651AE
:100AB00081A801D001D076D001010101086701D0E1
:100AC00001D070D00101266F010E01010101086FF4
:100AD00001012651010101011507D8A016070101E6
:100AE000010116AF01D001D007D07F0E0101010135
:100AF000156F000E0101166FF8EC0BF00101266F67
:100B0000000E01010101286F010126514DEC0CF08E
:100B10000B0E01010101286F060E0101296F13EC74
:100B20000BF015C12CF116C12DF1650E010101016B
:100B30002A6F060E01012B6F0101170E0101010141
:100B4000286F0101010E0101296F7AEC08F0010103
:100B5000266F400E01010101286F010126514DEC65
:100B60000CF00101170E01010101286F0101010EB6
:100B70000101296F13EC0BF015C12AF116C12BF1FD
:100B8000010101010BC128F101010101296B3FECB9
:100B90000CF0DC0E01010101286F050E0101296F27
:100BA00072EC0BF081B801D001D00FD0010101012E
:100BB0000805D8A401D001D008D00101266F000E8D
:100BC00001010101086F01012651010101010BC161
:100BD0002CF1010101012D6B3B0E010101012A6F76
:100BE000060E01012B6F0101170E01010101286F93
:100BF0000101010E0101296F7AEC08F00101266F55
:100C0000400E01010101286F010126514DEC0CF04D
:100C10000101170E01010101286F0101010E0101FF
:100C2000296F13EC0BF0010101010A05D8A401D0D2
:100C300001D08DD0070EC26E00F000F000F000F081
:100C400001D000D0C2B201D001D0FBD79E9CC3CF4F
:100C50000CF1C4CF09F10101010109510101276F14
:100C6000266B010101010C51010126250101010141
:100C7000116F0101000E010127210101126F080E01
:100C8000010101012A6F000E01012B6F11C128F132
:100C900012C129F18AEC09F028C111F129C112F120
:100CA000010101010C51010101010319D8B401D066
:100CB00001D013D00101266F000E01010101286F40
:100CC000010126514DEC0CF02B0E01010101286FA2
:100CD000060E0101296F13EC0BF00CC103F1FA0EA3
:100CE00001010101286F000E0101296F72EC0BF068
:100CF00011C12CF112C12DF1700E010101012A6FF9
:100D0000060E01012B6F0101170E01010101286F71
:100D10000101010E0101296F7AEC08F0F8EC0BF0EB
:100D20000101266F000E01010101286F010126510A
:100D30004DEC0CF00101170E01010101286F0101BA
:100D4000010E0101296F13EC0BF011C181FF0101AC
:100D500001010A51020AD8A401D001D093D00B0E90
:100D6000C26E00F000F000F000F001D000D0C2B27E
:100D700001D001D0FBD79E9CC3CF0CF1C4CF09F1A9
:100D80000101010109510101276F266B01010101D8
:100D90000C510101262501010101136F0101000E13
:100DA000010127210101146F080E010101012A6FC1
:100DB000000E01012B6F13C128F114C129F18AEC37
:100DC00009F028C113F129C114F1010101010C51ED
:100DD000010101010319D8B401D001D013D00101E0
:100DE000266F000E01010101286F010126514DEC13
:100DF0000CF02B0E01010101286F060E0101296F75
:100E000013EC0BF013C12CF114C12DF17A0E01017A
:100E100001012A6F060E01012B6F0101170E01015E
:100E20000101286F0101010E0101296F7AEC08F020
:100E30000101266F000E01010101286F01012651F9
:100E40004DEC0CF02B0E01010101286F060E010183
:100E5000296F13EC0BF00101266F000E0101010157
:100E6000286F010126514DEC0CF00101170E010114
:100E70000101286F0101010E0101296F13EC0BF034
:100E800013C181FF010101010A51030AD8A401D055
:100E900001D093D00F0EC26E00F000F000F000F011
:100EA00001D000D0C2B201D001D0FBD79E9CC3CFED
:100EB0000CF1C4CF09F10101010109510101276FB2
:100EC000266B010101010C510101262501010101DF
:100ED0000F6F0101000E010127210101106F080EA3
:100EE000010101012A6F000E01012B6F0FC128F1D2
:100EF00010C129F18AEC09F028C10FF129C110F1C4
:100F0000010101010C51010101010319D8B401D003
:100F100001D013D00101266F000E01010101286FDD
:100F2000010126514DEC0CF02B0E01010101286F3F
:100F3000060E0101296F13EC0BF00FC12CF110C14B
:100F40002DF1830E010101012A6F060E01012B6FA5
:100F50000101170E01010101286F0101010E0101BC
:100F6000296F7AEC08F00101266F000E01010101E2
:100F7000286F010126514DEC0CF02B0E01010101EF
:100F8000286F060E0101296F13EC0BF00101266F8B
:100F9000000E01010101286F010126514DEC0CF0FA
:100FA0000101170E01010101286F0101010E01016C
:100FB000296F13EC0BF00FC181FF010101010A51F0
:100FC000040AD8A401D001D091D0030EC26E00F063
:100FD00000F000F000F001D000D0C2B201D001D08A
:100FE000FBD79E9CC3CF0CF1C4CF09F101010101D5
:100FF00009510101276F266B010101010C5101010B
:101000002625010101010D6F0101000E01012721BB
:1010100001010E6F080E010101012A6F000E01018E
:101020002B6F0DC128F10EC129F18AEC09F028C1FE
:101030000DF129C10EF1010101010C510101010164
:101040000319D8B401D001D013D00101266F000ECE
:1010500001010101286F010126514DEC0CF02B0E0E
:1010600001010101286F060E0101296F13EC0BF03D
:101070000DC12CF10EC12DF14B0E010101012A6FA2
:10108000060E01012B6F0101170E01010101286FEE
:101090000101010E0101296F7AEC08F00101266FB0
:1010A000000E01010101286F010126514DEC0CF0E9
:1010B0002B0E01010101286F060E0101296F13ECAF
:1010C0000BF00101266F000E01010101286F0101E3
:1010D00026514DEC0CF00101170E01010101286FA2
:1010E0000101010E0101296F13EC0BF0D7EF03F0A2
:1010F00000EF00F001012C0E01010101316F01012F
:10110000010E0101326FEBD0010101013051250ABE
:10111000D8B401D001D00CD028C1E9FF29C1EAFF21
:10112000010130C1EFFF01010101284B292BD7D06C
:101130000101386F000E010101012E6F01013851CC
:1011400003D0E0D018D0CBD001012AC1F6FF0101B5
:101150002BC1F7FF010101012A4B2B2B08000101D4
:10116000F5CF30F101013051000AEBE0640AEAE00A
:101170000D0AE8E0E8D7010131C1E9FF010132C100
:10118000EAFF0101020E01013127000E01013223A5
:101190000101EECF33F10101EDCF34F10101010185
:1011A00034AF01D001D00BD0030E010101012E1389
:1011B00001010101336D0101341FD8B0342B01014D
:1011C000386F010E01010101306F01013851010139
:1011D00001013051050AD8A401D001D001D02AD094
:1011E000010101013051020D010EF324F66EF76A80
:1011F000060EF7220900F5CF38F10900F5CF39F1D5
:101200000101385101010101335D01013951010131
:1012100001013459D8B001D001D001D00BD0010167
:101220000101302B010101013051050AD8A401D080
:1012300001D0D6D7010101012E51030BD8B401D042
:1012400001D00AD028C1E9FF29C1EAFF2D0EEF6EB7
:1012500001010101284B292B30C12FF137D00101A9
:1012600001012F51020D010EF324F66EF76A060EEE
:10127000F72209000101F5CF3CF10A000101F5CF89
:101280003DF133C13AF134C13BF122EC0AF03AC1ED
:101290003AF13BC13BF10A0E010101013C6F000E26
:1012A00001013D6F7EEC0AF0010101013A51300F5E
:1012B00001010101306F28C1E9FF29C1EAFF0101E5
:1012C00030C1EFFF01010101284B292B0101010170
:1012D0002F0701012F29D8A401D001D0C0D70101C7
:1012E0002AC1F6FF01012BC1F7FF010101012A4BC1
:1012F0002B2B08000101F5CF30F10101306701D03F
:1013000001D002D728C1E9FF29C1EAFF000EEF6E24
:1013100000D012000101306F000E010101012D6F9C
:1013200001013051010101012BAF01D001D00FD0DB
:10133000010101012A6D01012B1FD8B02B2B0101E6
:10134000306F010E010101012D6F010130510101CA
:10135000010129AF01D001D00BD001010101286D9D
:101360000101291FD8B0292B010E010101012D1BFC
:10137000000E010101012E6F000E01012F6F01010E
:1013800001012B512A11D8B401D001D047D001015D
:10139000306F010E010101012C6F0101305109D0A4
:1013A0000101D89001012A3701012B370101010108
:1013B0002C2B010101012BAF01D001D0F1D701018C
:1013C000D89001012E3701012F37010101012A5167
:1013D00001010101285D010101012B510101010100
:1013E0002959D8A001D001D00FD0010101012A5103
:1013F00001010101285F010101012B5101010101DE
:10140000295B010101012E810101D89001012B33DB
:1014100001012A33010101012C2FD1D70101010162
:101420002D51D8B401D001D007D0010101012E6D9A
:1014300001012F1FD8B02F2B2EC128F12FC129F168
:1014400000D01200000E010101013F6F000E0101EA
:10145000406F010101013D513C11D8B401D001D0D0
:1014600047D00101416F010E010101013E6F0101F1
:10147000415109D00101D89001013C3701013D37AC
:10148000010101013E2B010101013DAF01D001D05D
:10149000F1D70101D89001013F3701014037010127
:1014A00001013C51010101013A5D010101013D5180
:1014B000010101013B59D8A001D001D00FD0010199
:1014C00001013C51010101013A5F010101013D515E
:1014D000010101013B5B010101013F810101D89044
:1014E00001013D3301013C33010101013E2FD1D700
:1014F0003FC13AF140C13BF100D0120001010101AE
:101500003D513C11D8B401D001D03ED001013F6F14
:10151000010E010101013E6F01013F5109D001019E
:10152000D89001013C3701013D37010101013E2BFB
:10153000010101013DAF01D001D0F1D7010101014D
:101540003C51010101013A5D010101013D510101DF
:1015500001013B59D8A001D001D00CD001010101FB
:101560003C51010101013A5F010101013D510101BD
:1015700001013B5B0101D89001013D3301013C3386
:10158000010101013E2FDAD73AC13AF13BC13BF1EB
:1015900000D012008398839C839A838E140E0101DD
:1015A000296F750EE82EFED7292FFCD7830E836E88
:1015B000838C839C070E0101296F7C0EE82EFED7D9
:1015C000292FFCD7838C839C420EE82EFED700D0B7
:1015D000838C839C420EE82EFED700D0820E836E51
:1015E000838C839C0101296F280E010101012B6F5F
:1015F0000101295148EC0BF00101296F0F0E010187
:1016000001012B6F0101295148EC0BF0F8EC0BF0B4
:101610000101296F060E010101012B6F0101295102
:1016200048EC0BF0120083881BD001010101285106
:10163000F66EE96E050EEA6E010101012951EA64B8
:1016400003D0EA6EEF5003D0F76E0800F5500101A9
:1016500001012B6F48EC0BF001010101284B292BF4
:10166000010101012851F66EE96E050EEA6E0101D5
:1016700001012951EA6403D0EA6EEF5003D0F76EFE
:101680000800F5500009D8A401D001D0CED712002F
:101690008350D00B010101012C6F010101012B3995
:1016A0000F0B010101012D6F0D0EE82EFED700F08A
:1016B000010101012C51010101012D25836E838C53
:1016C000839C010101012B510F0B010101012D6FC1
:1016D000010101012C51010101012D25836E838C33
:1016E000839C1200000E010101012A6F000E01010E
:1016F0002B6F08D04D0EE82EFED700F0010101013E
:101700002A4B2B2B010101012951800A01012C6F69
:10171000010101012A5101010101285D01010101BD
:101720002B51800A01012C59D8B001D001D0E2D749
:101730001200010101012A51B00F010101012E6FB8
:1017400058EC0CF001012C6F0A0E010101012E6F03
:1017500001012C5158EC0CF028C12EF158EC0CF082
:101760001200010101012A51B00F010101012E6F88
:1017700058EC0CF001012C6F010E010101012E6FDC
:1017800001012C5158EC0CF028C12EF158EC0CF052
:101790001200010101012A51800F010101012E6F88
:1017A00058EC0CF028C12EF158EC0CF001012C6F14
:1017B000000E010101012E6F01012C5158EC0CF0BB
:1017C0001200000EC26E0101286F0D0EC16E0101E4
:1017D00028519D9C30EC0CF0000E956E310E936EEE
:1017E0003F0E926E000E946ECAEC0AF0C08E12008C
:1017F000839801012A6F010E010101012B6F010184
:101800002A5148EC0BF0030E01012A6F980EE82EC6
:10181000FED72A2FFCD71200010101012C51900F95
:10182000010101012E6F58EC0CF028C12EF158EC8B
:101830000CF02AC12EF158EC0CF01200010101014C
:101840002851A00F010101012E6F58EC0CF02AC1A4
:101850002EF158EC0CF02CC12EF158EC0CF01200CB
:101860009390948C948E0101296F200EAF6E01012C
:101870002951AC8AAC84AB8EAB88B88612000101CA
:1018800001012851C00F010101012E6F58EC0CF02D
:101890002AC12EF158EC0CF01200839801010101CD
:1018A0002851800F010101012B6F48EC0BF0120051
:1018B00000D09EA801D001D0FCD72EC1ADFF1200F0
:020000040030CA
:0A00000000CA1F1E008581000FC01A
:00000001FF
